:020000040800F2
:10000000008000202501000813AE0008F5C7000895
:1000100013AE000813AE000813AE00080000000085
:1000200000000000000000000000000013AE000807
:1000300013AE00080000000013AE00089D05000884
:1000400013AE000813AE000813AE00084105000807
:1000500013AE000813AE000813AE000813AE00087C
:1000600013AE000813AE000813AE000813AE00086C
:1000700013AE000813AE000813AE000813AE00085C
:1000800013AE000813AE000813AE000813AE00084C
:1000900013AE000813AE000813AE0008F104000808
:1000A00013AE000813AE000813AE000813AE00082C
:1000B000DD060008090A000813AE000813AE0008A8
:1000C00013AE000813AE000813AE000813AE00080C
:1000D00013AE000813AE000813AE000813AE0008FC
:1000E00013AE000813AE000813AE000813AE0008EC
:1000F00013AE000813AE000813AE000813AE0008DC
:1001000013AE000813AE000813AE000813AE0008CB
:1001100013AE000813AE000813AE0008610100081A
:0401200013AE000812
:100124000AF078FE084809490022814201D004C03F
:10013400FBE707480749084A814202D008CA08C0B9
:10014400FAE706F05FFD00DE0811002048110020E8
:10015400000000200411002058EE0008F0B503AFA1
:100164002DE9000F97B0DFF848B30FA8DFF84483F8
:10017400011D083003910290DBF81000DBF8141025
:10018400BFF35F8F884200F089810BF110016FF09B
:100194000702014408284FF00209097A38BF0122F6
:1001A4001044BFF35F8FCBF81000080108EB011275
:1001B40018F80000D2E90165D46892F801A0DBF8D0
:1001C40028200BEB0203082A83F82C106FF0070198
:1001D40038BF0121BFF35F8F1144CBF828100121F0
:1001E40007F8651CA7F165010591DFE800F00345F8
:1001F400242F1600B4480AF097FE17F8654C012C1A
:100204005CD80BF042F906A803F05AFA0020A0EBE0
:100214000415E8B20BF00DFB5AE0A7480AF084FE7F
:1002240017F8654C022C44D20BF0F5F8A7F16500E1
:1002340004F05EFE3AE00BF0EEF830462946224622
:1002440003F004FBF0200BF0F4FA95E79B480C96BE
:100254000AF06AFEA7F16500BAF1000F4DD0BAF1B9
:10026400010F53D10BF092F880F096800BF00DF94A
:1002740013A805F0D3F851E091480AF049FE9148DB
:100284000AF02CFE50460AF032FE0AF00FFF17F86F
:10029400654C022C27D20BF0BEF884495FEACA7081
:1002A4004FF0200018BF4FF4001008600BF007FA5D
:1002B40062E7A7F1650004F01BFE5DE706A803F002
:1002C400FFF917F8654C012C2DD80020A0EB04157C
:1002D4000BF0DBF813A800F099FDE8B20BF0A9FAD3
:1002E40007F8654C22E071495FEACA704FF02000BC
:1002F40018BF4FF4001008603EE70BF047F84FD2E8
:100304000BF089F813A805F071F807E00BF03EF83C
:100314004AD20BF0BAF813A805F050F80BF0CFF955
:1003240007F8654C28E713A800F070FD13AA07CA64
:1003340009AB079D07C3E8B2052880F0A480DDF867
:1003440020A0504604F0DEFAC5F304424FF4616382
:100354005E4905F00704A2FB032308445C492244D8
:10036400C5F3052480FB0101C4EB041402EB8402F1
:1003740080180C9043EB01000D90280A000640F011
:1003840082800BF0A2F809A80BF0D4F810D013A8BF
:1003940004F0CAFDC0B214E013A805F03FF8EBE680
:1003A40013A805F023F8E7E613A805F007F8E3E639
:1003B4000BF085F813A804F0B7FD0BF064F90BF00B
:1003C40019FA09280AD144480AF0A2FD099804F050
:1003D400B7FC0BF050F90AF069FE02E03D480AF060
:1003E400A3FDC5F3074000284DD10BF06EF80AA811
:1003F4000BF0A0F804D013A804F0B4FDC0B208E0D8
:100404000BF05DF813A804F0ADFD0BF03CF90BF014
:10041400F1F909280AD132480AF07AFD0A9804F061
:100424008FFC0BF028F90AF041FE02E02B480AF099
:100434007BFD504604F081FBC0B2012823D10BF0B0
:1004440044F80BA80BF076F804D013A804F0A8FD28
:10045400C0B208E00BF033F813A804F0A1FD0BF0D0
:1004640012F90BF0C7F909280AD11F480AF050FD08
:100474000B9804F065FC0BF0FEF80AF017FE02E09E
:1004840018480AF051FD042019228DF84C0013A8D5
:1004940000900FA8002300F08DFD6DE600200BF006
:1004A400C8F917B0BDE8000FF0BD00BF180802403E
:1004B4001011002048110020150000001A0000004F
:1004C40017000000040000001900000074C2DAFFE5
:1004D4008051010030000000160000002F000000D1
:1004E400140000003100000018000000D0B502AF75
:1004F4000BF09BF904460E48402101608021016005
:100504004FF4807101604FF40071016000F058FCF9
:10051400084AC2E95001002082F8480106480AF05E
:1005240003FD02F007FA2046BDE8D0400BF081B984
:1005340014040140101500200F000000D0B502AFD4
:1005440088B00BF072F904460F480AF0EDFC0F482E
:10055400016841F0040101600D48016821F48061E3
:1005640001600C480121016002F0E4F900208DF8DB
:10057400100004A9684600F0D7FC204608B0BDE886
:10058400D0400BF056B900BF2800000000700040B6
:100594000C280040D0822042F0B503AF2DE9800F33
:1005A400DFF82CB14FF6FF78DFF828A106F093FAB4
:1005B40081460BF027F9BBF8C000404501D1002665
:1005C40047E000EB4001414ADAE902560BEBC10176
:1005D400D1E900381468E40304D5013546F1000676
:1005E400CAE9025683EA050488EA0602224324D0B3
:1005F400B3EB050C78EB060E1FD46FF0004282EAD1
:100604000E0262EA0C02C2B1304A1268D20304D567
:10061400013546F10006CAE9025683EA050288EA72
:100624000604224309D05B1B78EB060205D46FF065
:100634000044624062EA03026ABB0D7B01260A8A17
:10064400ABF8C020BBF8C220ABF8C2000A824FF658
:10065400FF78B9F1000F08BF0BF0D6F806F03BFAAB
:100664000BF047F8CEB1DAF814000AEB00010828C1
:100674000D766FF0070138BF01210844BFF35F8F87
:10068400CAF814000CB90BF0BFF810484FF400017D
:10069400C0F8F4118AE70026D9E79AF80000012887
:1006A4000AD10A480068C00306D5DAE9020101301C
:1006B40041F10001CAE90201002CBDE8080F0CBF9A
:1006C400BDE8F040F0BD0BF09FB800BF10E000E0C3
:1006D4000000002010110020F0B503AF2DE9000F39
:1006E4008BB00BF0A2F88046BD480021016002F0F7
:1006F40035F9002800F05C81BA4BBB4D1868994667
:10070400297810F040000AD1CA0708D101202870C6
:1007140000F056FB0BF01FF8C5E9040124E00122A8
:1007240082EA90100843196801F0400110EA911F11
:1007340003D000200124287016E0C00709D000F07F
:100744003FFBD5E90423801A71EB030003D2022492
:1007540009E0022408E000F033FB963041F1000187
:100764000024C5E904014B461868697810F080003C
:100774000AD1CA0708D10120687000F021FB0AF0F1
:10078400EAFFC5E906010BE0012282EAD010084322
:100794001968C9B210EAD11F49D000200124687039
:1007A40002261868E97810F400700ED1CA070CD13B
:1007B4000120E87000F004FB4B4610F57A7041F11B
:1007C40000010024C5E90A010CE0012282EA50205C
:1007D4000843196801F4007110EA512F35D0002044
:1007E4000124E87008261868A97810F480700FD1E5
:1007F400CA070DD10120A87000F0E2FA10F57A7052
:1008040041F100010426C5E90801002104203FE06C
:10081400012282EA10200843196801F4807110EA69
:10082400112F22D000200426A870042130E0C00734
:1008340000F0C58000F0C4FAD5E90623801A71EBF4
:10084400030080F0BE800126C4E0C007CBD000F0D6
:10085400B7FAD5E90A23801A71EB03004B46C2D3D9
:1008640000F0AEFA96304B46A9E7C00708D000F076
:10087400A7FAD5E90823801A71EB030080F0AC8055
:10088400022C17D0E00707BF002130460020314674
:100894006B7A01242A7A18432C72002A18BF80EA42
:1008A4000106F1B26E7229B1082905D0022905D1D9
:1008B400042007E0062005E0032003E006200429C5
:1008C40008BF022007F83D0C0DF11C0B47480990A6
:1008D40047480890A7F13D000790584604F0ACFE45
:1008E40017F83D0C062863D0DFF808A10021DAE9E7
:1008F4000006CAF80010002847D006F0ECF881463C
:100904000AF080FF3C484FF6FF72B0F8C0109142E5
:1009140036D001EB410300EBC3039C68B44206D11B
:100924001A8AA0F8C020B0F8C2201A8213E001EBA2
:10093400410100EBC10333F8101F914220D001EBB9
:10094400410400EBC404A568B542F0D1228A1A80A0
:10095400B0F8C2202282A0F8C21001EB410100EBE2
:10096400C1002649007B8A6A8B18082A83F82C0068
:100974006FF0070038BF0120BFF35F8F1044886217
:10098400B9F1000F08BF0AF03FFF04201C4A8DF89C
:100994001C000023CDF800B003A800F00BFB9DF869
:1009A4000C1004980539B1FA81F14909CAE900101B
:1009B40040460AF03EFF0BB0BDE8000FF0BD012633
:1009C400EFE600F0FDF9963041F100010024022623
:1009D400C5E906014B46E4E600F0F2F996300FE76C
:1009E4001000004010040240981A00200415002052
:1009F400B8140020901A00200000002010110020DC
:100A0400C0E1E400B0B502AF8AB00AF00EFF0446BC
:100A14003A4800210160022007F8290C01F09EFFEA
:100A2400002866D0A7F12900CDE90800CDE9060029
:100A3400334804903348039006A80C30029002A86F
:100A440005F010FE30480168490642BF816821F074
:100A540001018160816841F00101816001684906FA
:100A6400FCD581682A4D21F0040181600169274A7F
:100A740001EA020329786A78AD7843EA85030361C1
:100A84000E23244D0364436823F0407343EA026356
:100A9400436083682B4043EAC12303F180438360AE
:100AA40003689B07FCD5836D032A856825F001053F
:100AB4008560184608BF1802002908BF184680B28E
:100AC400B0F5FA7F07D214480178012911D1002129
:100AD4000170012007E00CD00F48017849B90121C9
:100AE400017040F20110ADF8180002A806A900F048
:100AF4001BFA20460AF09DFE0AB0B0BD1004004067
:100B040004150020B81400200024014003C0FF3F56
:100B1400C8110020FFF7FFBF0C11002080B56F46FD
:100B2400C16859B10139C160D0E90012914205D0C0
:100B34004A1C02608268531C836000E00021104656
:100B440080BDD4D4F8B504AF03780022032B88BF4A
:100B54009A1EDFE802F0031D0E14090002901748E4
:100B6400174A009002AB18E0D1E90001CB680E49A6
:100B740003E0D1E90001CB680D490B2204E0D1E97F
:100B840000010722CB68094904B0BDE8804018473A
:100B940003900848009003AB074A08461146082210
:100BA4000AF08EF804B080BD7ECD000877CD000831
:100BB4006CCD00081D40000864CD0008A13D00086C
:100BC4003CCD0008F0B503AF4DF8048D04460D4646
:100BD4000120BFF35F8FD4E84F1F31BBC4E8410F3E
:100BE4000029F8D105EB0208BFF35F8F45451AD001
:100BF40015F8016B304602F051FAC1B20429F9D05C
:100C0400052906D102F02EFAC007EFD0C8B2042895
:100C1400F8D00020BFF35F8F20700846BFF35F8FCA
:100C24005DF8048BF0BD0421F3E70348BFF32F8F75
:100C3400024A0AF068FD00BF64D0000870D00008C2
:100C4400F0B503AF2DE9800F814690460C46012094
:100C5400BFF35F8FD4E84F1FD1BBC4E8410F002915
:100C6400F8D108EB030A0093C346BFF35F8FD34563
:100C74002AD05E4616F8015B284602F00FFAC0B28D
:100C84000428F9D005280BD102F0ECF9C00703D0F1
:100C9400C8B20428F8D009E08BF80010B346E6E7A0
:100CA400002189F80400C9F8001004E0002089F844
:100CB4000410C9F800000020BFF35F8F2070BFF359
:100CC4005F8FBDE8080FF0BD0098C9E90080F2E726
:100CD4000248BFF32F8F024A0AF015FD64D00008C2
:100CE40070D0000880B56F461A4991F8B500DFE866
:100CF40000F0041C0F120C212A0001220320C1F869
:100D04009C000120A1F8A02018E01820052213E07F
:100D1400C02003220BE000220120A1F8A020C02261
:100D24004A670422A1F8780008E018200222C1F8DA
:100D34009C0002E0032006224867012081F8B400E9
:100D440081F8B52080BD00220020A1F8A020A1F8E0
:100D54007820F3E7D011002080B56F4690F8B010EA
:100D6400DFE801F0041A0E110B1E270001220321F3
:100D740041640121A0F8482016E01821052211E061
:100D8400C02103220AE000220121A0F84820C02249
:100D9400C2610422018407E018210222416402E0B6
:100DA40003210622C161012180F8B21080F8B0202D
:100DB40080BD00220021A0F848200284F4E7D4D4A6
:100DC400F0B503AF4DF804BD05F085FE0AF091FCC3
:100DD4000C48017801290BD10B49D0E90256096866
:100DE400C90307D5013546F10006C0E9025601E002
:100DF400002500260CB90AF007FD284631465DF8A7
:100E040004BBF0BD1011002010E000E0F0B503AF0A
:100E14002DE9000F89B08046FFF7D2FF3B4A002539
:100E2400E946CDE90055CDE902559446384A96463F
:100E3400384A9246384A9346102D14D0A0FB0E63CC
:100E440000FB0C3001FB0E0116EB0B0041EB0A0119
:100E5400C30ECE0E43EA411383EA5133F34149F8FA
:100E640005300435E8E70020CDE90600CDE90400AB
:100E740004A9102809D059F8003009EB00050B50DB
:100E84000B186D6808305D60F3E704AC1BCC43F0CD
:100E94000103C0186141A0FB0E5600FB0C6001FB6E
:100EA4000E00E9186041C90E41EA401181EA50314F
:100EB400C00E61FA00F00AF0F9FC18490AF021FEAC
:100EC400174CA06317480AF023F8A06B03F038FF0F
:100ED4000AF0ECF8D4E90E51D4E9106928460AF076
:100EE4001DFD8246E063284631460AF017FD06469A
:100EF4002064284649460AF011FD6064C8E900A64A
:100F0400C8F8080009B0BDE8000FF0BD2DF4515831
:100F14002D7F954CE45476A1F317BE6F00247449D9
:100F2400B81400201E000000F0B503AF2DE9000B3B
:100F34000D46804605F0CFFD06460AF063FC05F039
:100F440023FE044689460EB90AF05EFCE00724D06D
:100F540015495FFA89F001EB001095E81E001EC0E8
:100F640005F0B9FD0AF0C5FB10484169421808298B
:100F740082F818906FF0070238BF01221144BFF3C2
:100F84005F8F41610CB90AF03FFC05204FF400016A
:100F940088F800000648016003E095E80F0088E83F
:100FA4000F00BDE8000BF0BD481100201011002017
:100FB40004E200E0F0B503AF2DE9800F1D461646AC
:100FC4008046FFF7FDFE10EB060A41EB050B05F02A
:100FD40082FD0AF08EFBBE6805F0D6FD0546894603
:100FE4000CB90AF011FCE80743D041495FFA89F0D3
:100FF40001EB001096E81E001EC005F06CFD009089
:101004000AF000FC3B494FF6FF7CD1F800E00EF1FA
:1010140001020A603849B1F8C03063450DD003EBD2
:10102400430401EBC40551F834406D68BAEB040481
:101034006BEB0504B4F1FF3F05DC304B4FF08064EB
:101044001C60B1F8C030B1F8C24004EB440541F86B
:1010540035A001EBC5052E8AC5E901BE85F80C90C3
:10106400A1F8C260634509D1A1F8C040A5F810C039
:101074002EE096E80F0088E80F0030E003EB43060B
:1010840001EBC60251F836605268B6EB0A0662EB11
:101094000B02B2F1FF3F0FDDA1F8C0402B8217E035
:1010A40003EB430201EBC20051F832204068B2EB7B
:1010B4000A0270EB0B0009D503EB430201EBC206F5
:1010C40036F8103F6345EBD14FF6FF732B82348023
:1010D4000520C8F804E088F80000009810B1BDE8C5
:1010E400080FF0BDBDE8080FBDE8F0400AF08CBB66
:1010F40048110020081100200000002004ED00E049
:10110400F0B503AF2DE9000FADF6BC1DDFF8101FDD
:101114000120C871DFF80C0F09F006FF0448054EE2
:10112400016841F0070101600348306006E000BF38
:10113400042004E00038024000030100306880030A
:10114400FCD5306820F08070306030688001FCD4B9
:101154004FF40900B060306840F08070306030684F
:101164008001FCD5B06843F6F37188430330B06066
:10117400DFF8B40E09F0D8FE706A40F08050706257
:10118400DFF8A80E09F0D0FE4FF0805070620548D9
:10119400016841F480710160706B800502480ED4CF
:1011A40004E000BF00700040A00647420121002275
:1011B4000162026201608260716B8905FCD5716B0A
:1011C400012262F3114171638263CA20034AD06130
:1011D4005320D0615068400609D401E0082800403B
:1011E400506840F08000506050684006FCD510689C
:1011F400064920F040001060906808400449084304
:101204009060506820F08000506003E0008080FF10
:10121400FF007F0050684006FCD4FF20D061DFF857
:10122400100E09F081FEFD49086820F001000860F5
:10123400086840F00400086043F67F604860DFF807
:10124400F40D09F071FEF0694FF0010AF44D4FF00E
:10125400020840F00100F061F069F24A40F0020037
:10126400F061F069F04C934640F00400F061F069DD
:1012740040F00800F061F06940F02000F061E86897
:1012840020F00300E860286840F003002860E86864
:1012940020F04070E860286840F040702860E868FA
:1012A40020F04040E860286840F0404028605068E2
:1012B40020F040605060D4F8FC0340F04060C4F873
:1012C400FC03506820F040505060D4F8FC0340F018
:1012D4004050C4F8FC03506820F040405060D4F8FB
:1012E400FC0340F04040C4F8FC03D048016821F0FE
:1012F40030010160D2F8F81341F03001C2F8F8135C
:10130400CB49CA6822F00302CA600A6842F00302A9
:101314000A60CA6822F00C02CA600A6842F00C0231
:101324000A60EA686AF38302EA602A6822F00C021F
:101334002A60EA6868F30512EA602A6822F030023B
:101344002A60EA686AF38712EA602A6822F0C00217
:101354002A60A2686AF30D320AF011F922F44052AD
:101364000AF011F96AF38F320AF009F922F44042C3
:101374000AF009F96AF311420AF001F922F4403241
:101384000AF001F96AF393420AF0F9F822F44022D0
:101394000AF0E8F968F383020AF04DF822F00C022F
:1013A4000AF082F868F305120AF045F822F03002D8
:1013B4000AF07AF868F387120AF03DF822F0C002C6
:1013C400C4F8FC23EA6868F30922EA602A6822F474
:1013D40040722A60EA6868F38B22EA602A6822F481
:1013E40040622A60EA6868F30D32EA602A6822F4EF
:1013F40040522A60EA6868F38F32EA602A6822F46D
:1014040040422A60DBF804206AF301020AF013F870
:1014140022F003020AF048F86AF38B220AF00BF870
:1014240022F44062C4F8FC23EA6868F31142EA60DB
:101434002A6822F440322A60EA686AF39752EA6022
:101444002A6822F440022A60A26868F39B620AF0C8
:1014540096F822F040620AF096F868F31D720AF0DA
:101464008EF822F040520AF08EF868F39F720AF068
:1014740086F822F040420AF086F868F301020AF086
:101484007EF822F003020AF07EF868F383020AF081
:1014940076F822F00C020AF076F86AF319620AF080
:1014A4006EF822F040720AF06EF868F315520AF0F2
:1014B40066F822F440120AF066F86AF397520AF0CA
:1014C4005EF822F440020AF04DF968F30D3209F097
:1014D400B2FF22F44052C4F8FC23A26868F38712D6
:1014E4000AF04DF822F0C0020AF04DF868F3092220
:1014F4000AF045F822F440720AF045F868F38B22AA
:101504000AF03DF822F440620AF02CF968F309224B
:1015140009F091FF22F4407209F0C6FF6AF38F329A
:1015240009F089FF22F4404209F0BEFF68F311423A
:1015340009F081FF22F44032C4F8FC23EA6868F31E
:101544009342EA602A6822F440222A60EA6868F337
:101554001552EA602A6822F440122A60DBF804205B
:101564006AF3934209F067FF22F4402209F09CFFDA
:101574006AF3155209F05FFF22F4401209F094FF58
:1015840068F3975209F057FF22F4400209F08CFFE8
:1015940068F3196209F04FFF22F04072C4F8FC238B
:1015A4002A6828926A682792D5F808906A6A26926F
:1015B4002A6A2592EA6824926A692392D5F800245B
:1015C40022922268219262682092226A1F92E26922
:1015D4001E92A2681D9222691C92D4F8FC231B92CD
:1015E400D4F800241A92DBF800201992DBF81C20AE
:1015F4001892DBF818201792DBF804201692DBF817
:101604000C201592DBF8F8231492DBF8FC231392D8
:10161400DBF80024129200F00DB800BF10E000E0E7
:101624000000024008080240040402400C0C02407E
:1016340000140240826911924269109202680F926A
:1016440080680E9008680D9048680C9088680B902C
:10165400486A0A90086A0990C868089048698C2109
:10166400079093A80AF07BFDDBF8040020F00C003F
:1016740009F001FF20F0020009F0F8FE6AF383008C
:1016840009F008FF20F0300009F0F5FE20F0040016
:1016940009F0ECFE6AF3051009F0FCFE20F0C0002E
:1016A40009F0E9FE20F0080009F0E0FE6AF3871073
:1016B400C4F8FC03E86820F44070E860686820F02F
:1016C4001000686028686AF309202860E86820F43C
:1016D4004060E860686820F02000686028686AF369
:1016E4008B202860E86820F44050E860686820F0A7
:1016F4004000686028686AF30D302860E86820F4C8
:101704004040E860686820F08000686028686AF3F8
:101714008F302860DBF8040020F0030009F0ABFEF2
:1017240020F0010009F0A2FE6AF3010009F0B2FE04
:1017340020F4406009F09FFE20F0200009F096FE9E
:101744006AF38B20C4F8FC03A0686AF30D3009F037
:1017540096FF20F4405009F04DFF6AF38F3009F0F2
:101764008EFF20F4404009F045FF6AF3114009F070
:1017740086FF20F4403009F03DFF6AF3934009F0FE
:101784007EFF20F4402009F035FF20F0406009F08E
:1017940076FF20F04060C5F80004606840F04060C7
:1017A4006060A06820F0405009F069FF20F04050CC
:1017B400C5F80004606840F040506060A06820F004
:1017C400404009F05CFF20F04040C5F80004606828
:1017D40040F040406060E86820F44030E8602868E9
:1017E40020F440302860A86840F44030A860E868DD
:1017F40020F44000E860686820F4006068602868AD
:101804006AF397502860E86820F44020E86028686C
:1018140020F440202860E86820F44010E86028683C
:1018240020F440102860DBF8040020F4402009F084
:1018340022FE20F4007009F019FE6AF3934009F0C7
:1018440029FE20F4401009F016FE20F4806009F00F
:101854000DFE6AF3155009F01DFE20F4400009F056
:101864000AFE20F4006009F001FE6AF3975009F0C3
:1018740011FE20F0407009F0FEFD20F4805009F0C4
:10188400F5FD6AF31960C4F8FC03A06820F4401065
:10189400A060206820F4806009F017FF6AF31550F7
:1018A40009F0A8FE20F44000A060206820F4006045
:1018B40009F00BFF6AF39750C5F80004DBF8040045
:1018C40020F4405009F0D7FD20F0400009F0CEFD8F
:1018D4006AF30D30C4F8FC03A06820F00C00A0608B
:1018E400206820F0020009F0F0FE6AF3830009F09A
:1018F40081FE20F04070A060206820F4805009F040
:10190400E4FE6AF3196009F075FE6AF3010009F058
:10191400B6FE20F0030009F06DFE20F0C000A060C8
:10192400206820F0080009F0D0FE6AF3871009F05F
:1019340061FE20F44070A060206820F0100009F0DF
:10194400C4FE6AF3092009F055FE20F44060A0604B
:10195400206820F0200009F0B8FE6AF38B20C5F857
:101964000004DBF8040020F44070CBF80400D4F841
:10197400FC0340F4407009F08DFD6AF38F30CBF81E
:101984000400D4F8FC0320F4404009F083FD20F463
:10199400403009F070FD20F4807009F067FD6AF3AF
:1019A4001140C4F8FC03686A20F00F0068622868DC
:1019B40068F311402860B0680DF1A80820F0EE40EB
:1019C40000F18060B06000208DF8A8A0CDF8AD00D3
:1019D400CDF8A900404601F003F840F20130306030
:1019E40030688007FCD5306A0521E74C022240F4B8
:1019F40000703062E54B206ADFF88C5A61F31750AF
:101A04002062D3F8000462F39B60C3F80004206AE8
:101A140061F31B602062D3F8000462F31D70C3F805
:101A24000004206A61F31F702062D3F800040021CF
:101A34002C4662F39F70C3F80004706A4FF451722D
:101A440040F480407062D24841600260DFF8400A8E
:101A540004F8011F09F068FACE494FF48060086168
:101A64004FF4006008614FF480500861B694B6A842
:101A740002F0B7F8C00740F0D184C8B2292840F07A
:101A8400CC84CDF81890B6A802F0A0F8C1B207290A
:101A940040F0C484BF494FF000600DF5367B086107
:101AA400681C29904FF480612D9058460AF057FB2A
:101AB4002DA800215A464FF4806301F08DFAC0B27C
:101AC400072840F0A684DFF8CC0909F021FADFF8F2
:101AD400C80909F003FA58464FF4806103F070F91D
:101AE40009F0E4FA0BF1020A40F2FE31504603F029
:101AF400F9F8A7F1D809044659466F2248460AF076
:101B0400F8FB4846A5B200F00DFF80B2854232D002
:101B1400A7F1D80000F006FF8346DFF8800909F03A
:101B2400F7F9204603F03CF9584603F039F909F077
:101B3400BDFA2DA8B6AA4FF480614FF4806301F07A
:101B44004BFAC0B2072840F06484504640F2FE319C
:101B540003F0C8F8A7F1D804B6A982466F2220463C
:101B64000AF0C7FB20461FFA8AF500F0DBFE80B2BC
:101B7400854240F06D840DF1B80A09F101010AF1C2
:101B840001006E22B34617F8D84C0AF049F91A201E
:101B94000025B79011208DF8B84051468DF8E052D9
:101BA4006F22B690B6AC204601F074F97A4B43F23A
:101BB40039027A4E69B100F8016B360A46EA0366C7
:101BC4001B0A43EA0263120A42EA056201392D0A3A
:101BD400F0E72EA920466F220AF08BFBDFF8D0082D
:101BE40009F096F9DFF8CC0809F078F96F2009F0CC
:101BF40087F9DFF8C40809F071F900256F2D04D0C6
:101C0400605D09F074F90135F8E709F04FFA5E4CAC
:101C14004FF0006002226061FB208DF827014FF431
:101C24007B40ADF8D802B6A92998FEF7CBFF4FF454
:101C340000606061DFF8840809F06AF9DFF8800861
:101C440009F04CF90DF22710012103F0B9F809F05D
:101C54002DFAB6AC2DA9204600F025FE9DF8D80239
:101C6400012800F0B183611C4AAC0E2220460AF020
:101C7400D7F809F07AFC814609F077FC064609F0AA
:101C8400A0FD04463EB14AA800F0E5FCEA4900FB89
:101C9400014000F561644AA800F0B7FC0646DFF88D
:101CA400240809F035F9DFF820584846A8472046AB
:101CB400A8473046A84709F0F9F936494FF00070B3
:101CC400324B0222DD4C08610721586A61F3071088
:101CD4005862186862F393401860586A61F30B20E5
:101CE4005862186842F20C0162F315501860DBF870
:101CF400200040F48040CBF820008E20A06000201B
:101D040020616061E16001212061B791DFF8BC17B7
:101D1400BA90B9900420B8900DF64800B691B6A9CF
:101D240002F0D0FA002840F0558320684006FCD524
:101D3400DFF89C0709F0ECF8DFF89807142103F0AA
:101D44000DF809F0B3F9DFF8900709F0E1F8DFF8CE
:101D54008C07062103F002F809F0A8F900204FF4DB
:101D6400E151CDE902100022B548B64B0090B6A867
:101D740002F0AEFB9DF8DF02012811D0B79CE00110
:101D84000ED4B699B89A0EE0040402400000024052
:101D940000380040080802403536373831323334D1
:101DA400A94CAA49AA4A0020B8928DF8E6028946AD
:101DB400ADF8E4029246CDE9B614B6A802F050FBA1
:101DC4000546DFF81C070E4609F0A2F828463146FE
:101DD40002F0D6FF09F06AF948462146524601F05E
:101DE40035FD002840F0FF82DFF8F80609F09CF882
:101DF400984ACA20D0615320D061106820F48060D2
:101E04001060506820F48060506050684007FCD532
:101E140010680424CA21012664F302001060D4600F
:101E24001068DFF8C45640F480601060FF20D06171
:101E3400D1615321D1618849C1F800610E601168F4
:101E440041F480411160D061DBF8200040F00100D2
:101E5400CBF820000620A8470720A8470820A84759
:101E64000920A847DBF824004FF0804100250C220C
:101E740040F00100CBF82400DBF8180040F001002A
:101E8400CBF81800DBF8180020F00100CBF818009C
:101E9400086820F00100086070488561C2614FF253
:101EA400620202620A6842F004020A600A6842F0AE
:101EB40001020A6006601822DBF8241041F00201D6
:101EC400CBF82410DBF8181041F00201CBF81810FD
:101ED400DBF8181021F00201CBF81810D0F8F41335
:101EE40021F00101C0F8F4135D49C0F818540A60E8
:101EF4004FF47A424A608C22D0F8F41341F0040182
:101F0400C0F8F413D0F8F41341F00101C0F8F4134D
:101F1400C0F800644EA893A90AF0EBF98DF8D842F2
:101F2400A7F1D800B6A9FEF7FFFFDFF8C00508F057
:101F3400FBFF71A8B8E806000DF5367A06C098F8DC
:101F4400001001702DA9504600F0ADFC9DF8D80298
:101F5400012800F051820AF1010874A80E224146BA
:101F640009F05EFFA7F1D80627F8CC5C47F8D05CEF
:101F740041F6840147E936552DA832460E2301F077
:101F84002BF8C0B2072840F05182304609F059FBC3
:101F94002CCE51462CC185B2504632880A8000F0BE
:101FA40052FB80B2854207D19DF8D84278A84146B9
:101FB4000D2209F035FF05E000248DF8EC417A94F8
:101FC400CDE978440020A7F1D80527F8CC0C41F6D8
:101FD400F44147F8D00C2A4647E936002DA80E23D1
:101FE40000F0FAFFC0B2072840F02782284609F023
:101FF40028FB2946524668C968C285B250460988FA
:10200400118000F020FB80B2059485422AD19DF80E
:10201400D802414604907CA80D2209F001FF28E073
:102024001011002020000000240000001D0000000A
:102034002700000022000000F0F1FFFF00380140FB
:1020440044A51F001C3910003B3B1700FFC99A3BF5
:102054006D3D9C0008280040508020420C00004048
:102064002804004000208DF8FC017E900490CDE906
:102074007C0080AEDFF8841406F1100006220624EA
:1020840004F036FB22204FF0000B8DF849020C209F
:102094008B901121DFF868048A90DFF868048C9033
:1020A40006F138008D94E94CCDE987BB89940AF098
:1020B40056F80120DFF8501480900DF5DB600622FD
:1020C4008DF80CB2CDE981BB00F097FA0DF5DF660F
:1020D40001250121002230468DF8F456CDF8F0B6E2
:1020E400CDF8EC56CDF8E8B600F087FA06F110000A
:1020F400DFF81894C8470DF5E666DFF814A401214B
:1021040000223046D04706F12800C847CDF888475A
:1021140026460DF5F264CDF884B7CDF880B7204695
:10212400ADF88CB7C84704F12800C847DFF8E4834A
:1021340004F1500004224146D04704F17800C84716
:102144000DF64804CDF838B8CDF834B820468DF8EB
:102154004258CDF83C68ADF840B8CDF830B8C8471F
:1021640004F12800C84704F1500041460422D04736
:1021740004F17800C8478DF8FA58A7F1D8054FF450
:102184008070CDF8F0B8ADF8F8082846CDF8ECB872
:10219400CDF8F468CDF8E8B8C84705F12800C84779
:1021A40005F1500041460422D04705F17800C847A4
:1021B4004FF001094FF4007047E90DBB0DF5DB61E9
:1021C40007F8269C202247F82C6C27F8280C47F89F
:1021D40038BCB6AE304609F023FE06F120000DF5FA
:1021E400DF61382209F01CFE06F158000DF5E661A6
:1021F40060220AF00BF80DF5F26A06F1B800B82275
:1022040051460AF003F806F5B8702146B82209F0E1
:10221400FDFF06F50A702946B82209F0F7FFA7F179
:10222400D8084EA98C2240460AF063F871AB504698
:1022340006CB06C01978017074AD20460ECD0EC0D1
:102244008C222988B44D018041460798C5F8B00016
:102254000F98C5F890000E98C5F894000D98C5F82D
:1022640098000C98C5F89C000B98C5F8A0000A9833
:10227400C5F8A4000998C5F8A8000898C5F8AC00EA
:1022840017982867169868671598A8671498E867D8
:102294001398C5F880001298C5F884001198C5F801
:1022A40088001098C5F88C001F9828651E986865EA
:1022B4001D98A8651C98E8651B9828661A98686696
:1022C4001998A8661898E86606982863269868639B
:1022D4002598A8632498E86323982864229868645E
:1022E4002198A8642098E8648C4885F80EB0A5F875
:1022F4000CB0C5E90400C5E90600C5E90800289842
:10230400A8622798E86240F2022028818448C5E93F
:10231400009005F1B40009F0ECFF8248514609220F
:10232400C5E950BB85F848B109F07AFD7E482146DD
:102334000E2209F075FD7D480D22059900F8011B58
:1023440078A909F06DFD7A480D22049900F8011B63
:102354007CA909F065FD77484C222999016080A980
:10236400754809F0C6FF754C31464FF43872204663
:1023740009F04CFF7349724884F8E0B2C1F800B028
:10238400424980F808B0C0F800B0C0E904BBC0E915
:1023940006BBC0E908BBC0E90ABBC1F808B00868BD
:1023A40040F001000860684880F802B0A0F800B06E
:1023B4003548C0E902BB80F8009009F025FA0DF613
:1023C400BC1DBDE8000FF0BD9DF8D90207F8D80C7C
:1023D400634816E060480DF6480200902B2132480D
:1023E4005E4B08F0D0FC5A480DF6480200902B21B1
:1023F4002D48584B08F0C7FC9DF8D90207F8D80CB3
:1024040052480090A7F1D80227483A4B2B2108F0F4
:10241400BAFC042828BF04202BE005215148009071
:102424002148514B8DF8D812B6AAEFE7042828BFEB
:1024340007208DF8D8022E4805E0042828BF07207D
:102444008DF8D8022C480090B6AADDE7019C1F0045
:10245400A7F1D80000F066FA0446114808F058FDC8
:10246400504602F09DFC204602F09AFC08F01EFE45
:1024740005208DF8D8022B210A480090B6AA0A48F4
:102484000A4B08F080FC00BF1011002010E000E0AF
:102494001C0000001B000000010000002E000000D2
:1024A4003200000060CE00082AEE000828D100089F
:1024B40023000000030000000A00000029000000BF
:1024C4000200000025000000294D000890CE0008FD
:1024D4002C00000034CE00082B00000048CE000879
:1024E4002A00000026000000693900081F000000CF
:1024F400C8CE000808D10008D8CE000800CF0008D4
:1025040006CF000812CF000889CD000899250008DD
:10251400D3250008A0CD0008101500200024F400E5
:1025240000127A00041500207216002064160020A0
:102534008016002060160020B8140020D01100205E
:10254400981A0020901A0020C8110020B8CE000864
:10255400A8CE000818D1000898CE000848D1000879
:1025640070CE000850CE000838D10008F0B503AF93
:102574004DF804BD064DA1F11006044636B12046BF
:102584002946012203F03EFC0136F7E709F01FB8A3
:10259400E8CE0008F0B503AF4DF8048D86B06D4663
:1025A40004462846012100224FF00108002604F0C9
:1025B400D9F809F0B2F84FF0FF30C4E9006684F8A6
:1025C40022802684E06106B05DF8048BF0BDB0B5CE
:1025D40002AF86B06D460446284604F0C3F809F0FD
:1025E4009CF800200121C4E9000020844FF0FF3052
:1025F40084F82210E06106B0B0BDD0B502AF044645
:1026040004F076F801202073D0BD80B56F464021D8
:10261400BDE8804001F0D6B980B56F462021BDE801
:10262400804001F0CFB980B56F460A464021BDE82D
:10263400804001F077BA80B56F460A462021BDE894
:10264400804001F06FBA80B56F460E216022BDE86C
:10265400804001F011BA80B56F460021BDE880408A
:1026640001F0B0B9DFB506AF0C46014600200E22DA
:102674008DF80C000D2002900C20019001A800F0B0
:1026840009FC29B1A2B200F8014B0139140AF8E798
:10269400DFBD80B56F460A460021BDE8804001F0E9
:1026A40041BAF0B503AF4DF804BD82B008F053FF52
:1026B40040F25B41884204D82846FFF7CCFF08F07B
:1026C400D2FF08F0BAFF2846FFF7A6FF41F69401AF
:1026D400019401EB800001A9042200F0F3FB09F04E
:1026E4000EF828BF0720072908BF092002B05DF8AB
:1026F40004BBF0BDF0B503AF4DF804BD82B008F0E3
:102704002AFF0009862804D82846FFF7A4FF08F00A
:10271400AAFF08F092FF2846FFF77EFF41F210015E
:10272400019401EB800001A9042200F0CBFB08F026
:10273400E6FF28BF0720072908BF092002B05DF87B
:1027440004BBF0BDF0B503AF4DF804BD82B008F092
:1027540002FF772804D82846FFF77DFF08F083FF9F
:1027640008F06BFF2846FFF757FF41F60451019428
:1027740001EB800001A9042200F0A4FB08F0BFFFD4
:1027840028BF0720072908BF092002B05DF804BB51
:10279400F0BDBFB506AF044600F049F8204608F086
:1027A40050FF08F064FF6D4608F0DAFE4FF48050E5
:1027B40008F081FF08F0A3FF28BF0720072908BFFE
:1027C400092004B0B0BDBFB506AF044600F043F81D
:1027D400204608F036FF08F04AFF6D4608F0C0FEB8
:1027E40041F6F44008F067FF08F089FF28BF07208E
:1027F400072908BF092004B0B0BDBFB506AF044621
:1028040000F03CF8204608F01CFF08F030FF6D464D
:1028140008F0A6FE41F6840008F04DFF08F06FFFB3
:1028240028BF0720072908BF092004B0B0BDD0B5D0
:1028340002AF0446FFF7F0FE411C08F011FF08F058
:1028440097FEB0F5076F18BFD0BD20460021BDE844
:10285400D040FFF7F0BED0B502AF0446FFF7DCFE70
:10286400411C08F0FDFE08F083FE782818BFD0BD97
:1028740020460021BDE8D040FFF7DDBED0B502AF51
:102884000446FFF7C9FE411C08F0EAFE08F070FE9A
:1028940040F25C41884218BFD0BD20460021BDE80B
:1028A400D040FFF7C8BEF0B503AF4DF804BD88B003
:1028B400044600206D46ADF80C0002902A46CDE98E
:1028C400000008464FF480510E2300F085FBC0B28F
:1028D400072818D1284608F0B4FE0DF1100C4ACD93
:1028E40062464AC2298885B260461180FFF7ABFE72
:1028F4000146601C89B28D420BD104A90E2209F055
:102904008FFA00210AE0042828BF07206070012103
:1029140004E000218181816041600160217008B080
:1029240008F055BE80B56F466F210022BDE8804097
:1029340001F0A2B880B56F46064890F8481139B145
:10294400002180F848110448BDE8804008F0ECBA42
:1029540080BD00BF101500201300000080B56F4635
:10296400FEF72EFA064AD2E95023821A9941002032
:1029740043F69823D21A71F1000138BF012080BDBB
:1029840010150020B0B502AF451C0020082819D04E
:1029940004462A5C0130002AF8D1204601F064F98B
:1029A400012028550B4808F0B3FA0B4808F096FAB2
:1029B400204608F0A5FA0025082C38BF012508F0A8
:1029C40075FB03E0054808F0AFFA002528462146C8
:1029D400B0BD00BF0D0000000B0000002D00000082
:1029E400BCB504AF0478DCB105460E4808F09CFA87
:1029F4000D4820210160002129704FF480310160CD
:102A040001F04AF90C2001F095F9062001F092F941
:102A140006486946019006480090002001F024F918
:102A24002046BCBD10000000180802400F110F0022
:102A34001F000E0180B56F460021C0F80510C0F8D4
:102A440001100248BDE8804008F06EBA0E00000094
:102A5400F0B503AF4DF804BD446805460020261DBB
:102A6400B0EB163F08D12868214604F049F8006805
:102A740006EB50006860012021465DF804BBF0BD00
:102A8400F0B503AF2DE9000F8FB008F047FD22D059
:102A9400FEF796F908F03CFD1DD2FEF791F908F017
:102AA4004DFC04D000200A2185F8210011E008F033
:102AB400BBFD2548089207900A9202A80990234872
:102AC40008F0A8FD07A908F073FDA8BBA86900F1E8
:102AD4000A0108F070FD95F8220048B308F05CFE86
:102AE400CA2001F027F90DF1080808F033FC95F825
:102AF400210058B108F016FC08F079FE31B108F055
:102B04005CFC0028F8D084F800B0F5E701200E49F9
:102B140008F00AFD0DA809900C48CDE90D8007A91D
:102B240008F046FD30B9A86900F10A0108F043FD38
:102B340008F021BD094800E00548009007AA0548AF
:102B44002B21054B08F01FF954CD00082966000815
:102B540018CF00082AEE000848D1000828CF000842
:102B6400F0B503AF2DE9000F8FB008F0D7FC20D0EB
:102B7400FEF726F908F0CCFC1BD2FEF721F908F089
:102B8400DDFB04D00020002185F821000FE008F0CF
:102B94004BFD2348089207900A9202A80990214805
:102BA40008F038FD07A908F003FD88BBA96908F0FF
:102BB40002FD95F8220038B308F0EEFD802001F004
:102BC400B9F80DF1080808F0C5FB95F8210058B1D3
:102BD40008F0A8FB08F00BFE31B108F0EEFB00286A
:102BE400F8D084F800B0F5E701200D4908F09CFC0A
:102BF4000DA809900B48CDE90D8007A908F0D8FC71
:102C040020B9A96908F0D7FC08F0B5BC094800E070
:102C14000548009007AA05482B21054B08F0B3F896
:102C240054CD00082966000818CF00082AEE0008D1
:102C340048D1000828CF0008F0B503AF2DE9000FF4
:102C44008FB008F06BFC20D0FEF7BAF808F060FCF7
:102C54001BD2FEF7B5F808F071FB04D00020002168
:102C640085F821000FE008F0DFFC23480892079064
:102C74000A9202A80990214808F0CCFC07A908F0A0
:102C840097FC88BBA96908F096FC95F8220038B334
:102C940008F082FDC02001F04DF80DF1080808F09D
:102CA40059FB95F8210058B108F03CFB08F09FFD52
:102CB40031B108F082FB0028F8D084F800B0F5E7C1
:102CC40001200D4908F030FC0DA809900B48CDE90E
:102CD4000D8007A908F06CFC20B9A96908F06BFC09
:102CE40008F049BC094800E00548009007AA0548D7
:102CF4002B21054B08F047F854CD0008296600083D
:102D040018CF00082AEE000848D1000828CF000890
:102D1400F0B503AF2DE9000F8FB008F0FFFB22D010
:102D2400FEF74EF808F0F4FB1DD2FEF749F808F060
:102D340005FB04D00020082185F8210011E008F0EB
:102D440073FC2548089207900A9202A80990234828
:102D540008F060FC07A908F02BFCA8BBA86900F1E7
:102D6400080108F028FC95F8220048B308F014FD87
:102D7400882000F0DFFF0DF1080808F0EBFA95F861
:102D8400210058B108F0CEFA08F031FD31B108F055
:102D940014FB0028F8D084F800B0F5E701200E49B0
:102DA40008F0C2FB0DA809900C48CDE90D8007A9D5
:102DB40008F0FEFB30B9A86900F1080108F0FBFB3C
:102DC40008F0D9BB094800E00548009007AA054867
:102DD4002B21054B07F0D7FF54CD000829660008C6
:102DE40018CF00082AEE000848D1000828CF0008B0
:102DF400B0B502AF8AB00446007BF8B108460D4670
:102E0400FFF718FE802000F095FF0020104906907F
:102E1400012003900291059008A804900D48CDE983
:102E2400084002A9284601F075FA48B9A1680F299B
:102E34009CBF2846FFF79AFB002020730AB0B0BD60
:102E440005482B21009002AA0448054B07F09BFF7C
:102E540054CD0008E94D000848CF00082AEE0008C8
:102E640048D10008D0B502AF0B460446D0E90001B2
:102E740091420AD2247A0131002C18BF08468142BB
:102E840021BF1A18091A1046D0BD014B04F0D1FD18
:102E940080D00008D0B502AF0B460446D0E900014B
:102EA40091420AD2247A0131002C18BF084681428B
:102EB40021BF1A18091A1046D0BD014B04F0B9FD00
:102EC400A0D00008F0B503AF2DE9F80F0446104474
:102ED400B0F5801F01D906206BE03D4E4FF4006031
:102EE4003C4D93468A463060284600F07AFE0246FE
:102EF4000846D1075DD10DF10C0806214FF0806919
:102F04000194BBF1000F57D08DF80C1028464146B0
:102F1400012200F07DFEC0B207284AD1C6F8009015
:102F24000221019C0422204661F31E60414600BA3E
:102F340003902868FDF746FEE1B2C0B2C1F5807483
:102F44005C4528BF5C46042833D128685146224694
:102F5400FDF738FEC0B204282BD14FF48061A2449F
:102F64003160ABEB040B019820440C460190C6F889
:102F7400009005202968A7F1260227F8260C404670
:102F84000223FDF75DFE039888B1346017F8250C21
:102F9400C007ECD1042041468DF80C0028460122DC
:102FA40000F036FEC0B206210728AAD001E09DF841
:102FB400100005B008F023BC064800F007FEC0B2BC
:102FC400072802BF4FF0006030600720F1E700BF20
:102FD4001808024060160020F0B503AF2DE9F00791
:102FE4001F4E04464FF40060984692460D463060EA
:102FF400204600F0F6FD02460846D1072BD14FF0DB
:10300400806004223060032060F31E65B14628BA54
:103014002568019001A92846FDF7D4FDC0B2042813
:1030240019D102A8294652464346FDF709FE0298E3
:1030340078B14FF48060C9F80000204600F0C6FD66
:10304400C0B2072802BF4FF00060C9F80000072093
:1030540001E09DF80C0004B0BDE80007F0BD00BF1E
:103064001808024080B56F460B4801684A060AD426
:103074008A060BD4CA060CD4C90707BF0120042151
:103084000179002080BD0120002180BD01210120A3
:1030940080BD0120022180BD0838004080B56F4604
:1030A40009490A68530644BF002080BD930644BF03
:1030B400012080BDD30644BF022080BD920752BFC9
:1030C40004200871052080BD08380040B0B502AF67
:1030D4008AB0054690F8E0020C4650BB28462146CB
:1030E400FFF786FE287F012821D12046FFF7A2FCA6
:1030F400C02000F01FFE00203F49069001200390ED
:103104000291059008A804903C48099005F110002C
:10311400089002A9204601F0FDF8002864D1A969AD
:103124000F299CBF2046FFF721FA0020287795F845
:10313400E00201280AD105F120002146FFF758FEDC
:1031440005F1300008F0D8FA95F8E002022809D118
:1031540005F1580008F042FB05F1800008F0CCFAB4
:1031640095F8E002032813D105F1B8002146FFF7D2
:10317400CFFD05F5847008F031FB05F59870214604
:10318400FFF77EFC05F1E00008F0B6FA95F8E002DE
:10319400042813D105F5B8702146FFF7B9FD05F5EC
:1031A400E07008F01BFB05F5F4702146FFF768FC9E
:1031B40005F5CC7008F0A0FA95F8E002052811D1C5
:1031C40005F50A702146FFF7A3FD05F51E7008F00A
:1031D40005FB05F528702146FFF752FC05F5147030
:1031E40008F08AFA0AB0B0BD05482B21009002AA63
:1031F4000448054B07F0C7FD54CD0008E94D00080D
:1032040048CF00082AEE000848D10008F0B503AF03
:103214002DE9000F93B005460020A8614FF0010B83
:10322400A8600DF11809DFF850040C461190DFF87E
:103234004C84DFF84C04079001F1300006902846D6
:10324400CDF848B0CDF838B0CDF83480CDF840B0E2
:10325400CDF83C900DA901F02BF8DFF82C040DF10A
:10326400340A079004F13800069005F11000DFF8E5
:1032740014645146CDF848B01196CDE90D8BCDE9D3
:103284000F9B01F00BF80494D4E90A84A86AA042C5
:1032940005D1686A4146224608F0CEFAA0B15046EC
:1032A400414622464E4605F1200903F021FAD5E9AC
:1032B400080101F044F89AE8070089E80700B146DC
:1032C400DFF8C06385F82CB00020DFF8B013A864E1
:1032D4000120CDE911600E90CDE90F90DFF8AC0329
:1032E400079004980D914930069005F130000DA91E
:1032F40000F0FCFF002840F0B68104981C300390D5
:1033040005F15800029095F8B40028B9039905F125
:10331400A80091E81C001CC0D5F8B0400020C5F8F6
:103324009800286708F04AFA08F0AAF807F8510C40
:103334000326D748A7F15108DFF858A3A7F1520B89
:1033440000EBA4200C90D44806900B96CDF828A04E
:10335400079609960DACD148DFF830930894129083
:103364000CAC1194CDF84090CDE90E98CDF834B062
:1033740006A9029800F088FFD5F8AC008DF830005B
:10338400010CCDE90AA607F8521C010AC44807F843
:10339400511C0796069009960DA8089005F1800027
:1033A400CDE91149CDE90F89CDE90DB906A900F0A0
:1033B4009DFF05F1B800029095F86A0128B90399B8
:1033C40005F5AE7091E81C001CC0D5F864410020DE
:1033D400C5F84801C5F8F800C5F8D00008F0EEF9C2
:1033E40008F04EF807F8510C0DF13409A8480DF116
:1033F4003008DFF8A0B200EBA420A44CDFF89CA2B4
:10340400CDE90B60A7480690A7F15100CDF828B08C
:10341400CDE90E40A7F1520007960996CDF8209009
:10342400CDF848A0CDF8448010940D9006A90298D8
:1034340000F066FF95F862018DF830009A48069016
:103444009A48CDE90AB60796CDE90896CDF848A082
:103454001190CDE90F0A05F1E000CDE90D8406AC29
:10346400214600F043FF049905F59870096802911C
:10347400012907D10499814A07F0D3FF8249CDE994
:10348400068108E0002101220E92894A11911091CF
:1034940004210D920F910DA900F01EFF05F5B870DF
:1034A400019095F8220228B9039905F5057091E871
:1034B4001C001CC0D5F81C420020C5F80002C5F849
:1034C400B001C5F8880108F079F907F0D9FF07F8C9
:1034D400510C0DF1340A6E480DF1300B6B4E00EBBC
:1034E400A4200C906F4803240690A7F15100DFF844
:1034F400A481DFF8A891CDE90E60A7F152000B94E6
:10350400CDF8288007940994CDF820A0CDF84890F0
:10351400CDF844B010960D9006A9019800F0F0FE85
:1035240095F81A028DF830005F4806905F48CDE99F
:103534000A840794CDE908A4CDF848901190CDE908
:103544000F0905F5CC70CDE90DB606AC214600F0A7
:10355400CDFE029905F5F47039B10499474A07F094
:1035640060FF4949CDE906B108E0012100220E912E
:103574004F490D910421119210920F910DA900F061
:10358400ABFE05F50A70019095F8DA0228B9039CA0
:1035940005F5337094E80E000EC0D5F8D44200202F
:1035A400C5F8B802C5F86802C5F8400208F006F983
:1035B40007F066FF07F8510C0DF1300B34480DF19C
:1035C4003409DFF8D8A000EBA4200C90354803247C
:1035D4000690A7F15100CDE90A84CDE90E60A7F168
:1035E400520007940994CDF82090CDF848A0CDE975
:1035F400106B0D9006A9019800F082FE95F8D20296
:103604008DF83000284806902848CDE90A840794AC
:10361400CDE90894CDF848A01190CDE90F0A05F53D
:103624001470CDE90DB606AC214600F05FFE029998
:1036340005F5287039B10499104A07F0F2FE1249D1
:10364400CDE906B108E0012100220E9118490D913F
:103654000421119210920F910DA900F03DFE13B0B8
:10366400BDE8000FF0BD13482B2100900DAA1248AD
:10367400124B07F088FB00BF58CF000854CD000858
:103684000B6D000870CF0008C5A900088FA70008BB
:1036940030F8FFFFB4CF000834D00008F3A70008C7
:1036A4004CD000089CCF000814EB000894CD00080F
:1036B400FCCF000888CF00082AEE000848D1000893
:1036C400F0B503AF4DF8048D96B005465548C16872
:1036D4008906FCD506684468C16821F02001C160F0
:1036E400C4F30321E00448BF0A3100296CD002A8C6
:1036F40001F05EFA0298002874D1C4F3011104F0B9
:103704000F009DF80C200DF1080841EA810100EB3F
:103714004103C4F30351C4F3034001EB810100EB03
:10372400410000F2B271404601F07AF90298002893
:103734005ED1C6F30151C6F303404FF0000C41EAD9
:10374400810100EB4104172C5ED8C6F30231C6F3A5
:10375400032001EB810100EB41013B295AD8C6F358
:10376400021206F00F00002302EB820200EB42007B
:103774003B289FBF039A090241EA044108449FBFC2
:10378400C5E90030AA6016B05DF8048B98BFF0BD9F
:103794002A4A4FF03B0E06260446CDF810C0CDE968
:1037A400026C0C920CAA98E86200101D62C02B21D6
:1037B4002348CDE910E300901C481D4BCDE9124C81
:1037C400CDF850C007F0DFFA00200C21CDE9050147
:1037D40001210990CDE907000A90052003901948BA
:1037E400049102900CAC02A907F03CFE164804E0D8
:1037F4000CAC02A907F036FE0B4800902B210B48B5
:1038040022460B4B07F0BFFA4FF0170E094A042665
:103814000023C2E700234FF03B0E074A06260C465E
:10382400BBE700BF0028004014D000082AEE0008BF
:10383400F8D0000890CD0008CAD10008D0D1000803
:1038440024D00008D6D1000804D00008F0B503AF96
:103854002DE9F80F414800EBA225642D76D21046DD
:1038640016460C4601F012F88046304601F065F920
:103874003B49CA224FF00A09C0B24A6253224A6243
:1038840004F03F02B2FBF9F303EB8306A2EB46021A
:103894000492B0FBF9F202EB82064FEA021EA0EB9F
:1038A4004600029018010390B5FBF9F000EB800389
:1038B400A5EB43034FEA034CC4F30523B3FBF9FA26
:1038C4000AEB8A06A3EB46031B020193C4F30443E9
:1038D400B3FBF9F444EA8406A3EB4603CE684FEA4B
:1038E400034B5FFA88F3B3FBF9F202EB8202A3EB1A
:1038F40042021202760606D4CE6846F08006CE60F6
:10390400CE687606FCD54CEA00500A2B28BF40F45A
:103914008050029B10430EF030021A43104340F4CF
:10392400005048604BEA0450019A40EA0A301043C0
:10393400039A1043049A10430860C86820F080007A
:10394400C860C8684006FCD4FF2048620020632D8C
:1039540088BF012005B007F052BF00BF4EF8FFFF3B
:1039640000280040D0B502AF00F00C02C1B21448E8
:10397400082A0BD1426801230829144663F307126D
:1039840063F3030408BF224642600AE0026801238D
:103994000729144663F30B2263F30F3408BF22464E
:1039A4000260012202FA01F1D0F800240A43C0F8AF
:1039B4000024D0F8F4231143C0F8F413D0BD00BFA1
:1039C4000C000140F0B503AF4DF804BD84B00246CD
:1039D4000B46C8081F31C90813F0070C03D08142F5
:1039E40012D1002318E00024CDE901018DF80C4028
:1039F40001A811460E22FFF735FA013889B3425C5B
:103A0400013942EA0424F9E75B42555C03F00703F9
:103A1400FF2626FA03F32B400D1A012D0CD98142FF
:103A240022D9451A8E180135013E2DB116F80149E7
:103A3400013544EA0323F8E7814205D1105C20FAFA
:103A44000CF043EA00040CE0105CFF2121FA0CF1B5
:103A540020FA0CF00840CCF1080103FA01F141EA24
:103A64000004204607F039BD024B01300E2203F05A
:103A7400E0FF00BF90D00008F0B503AF4DF804BDDF
:103A840084B08C4602F10F010546D008C90812F033
:103A9400070E03D0814212D1002218E00024CDE9A0
:103AA40001018DF80C4001A829466246FFF7DAF9B6
:103AB400013869B3425C013942EA0424F9E752420D
:103AC4006C5C02F00702FF2626FA02F222400C1A6E
:103AD400012C0CD981421ED9441A4E190134013EDD
:103AE4002CB116F80139013443EA0222F8E72C5CC0
:103AF400814224FA0EF401D1144309E0FF21CEF1EE
:103B0400080021FA0EF1214002FA00F040EA010413
:103B1400204607F0E2BC024B0130624603F089FF05
:103B240090D00008F0B503AF4DF804BD84B014463E
:103B3400024601F11F000B46CD08C10813F007002F
:103B44002DD04FF0FF33A94203FA00FC535D18BF98
:103B540023EA0C03FF26C640264086403343C0F1C7
:103B64000806F440481B022853550BD3681CA9428D
:103B740026D9EB4310440B4423B100F8014B013B1D
:103B8400240AF9E7A94207D0505CFF23F34000EA76
:103B94000C0023401843505404B007F018BD002013
:103BA400CDE901518DF80C0001A811460E22FFF752
:103BB40071F90029F0D000F8014B0139240AF8E723
:103BC400014B0E2203F035FFB0D00008E0B502AF80
:103BD400B921012207F8011C791E00F019F8C0B2BE
:103BE4008CBDE0B502AF0021052247F8041CAB21CF
:103BF40007F8051C791F00F00BF8C0B217F8011C78
:103C0400072818BF0146073818BF01208CBDD4D43B
:103C1400DCB504AF094C13460A464FF080612160BD
:103C240001686846FDF70CF8009820B14FF48060F5
:103C340020600720DCBD9DF80400DCBD18080240AC
:103C440080B56F46BDE8804002F0F6BCD0B502AF47
:103C5400044C08202060012002F0EEFC4FF4002008
:103C64002060D0BD18080240B0B502AF0C46402118
:103C740041EAC00000F05EF80025082D04D0605D24
:103C840000F048F80135F8E7B0BD80B56F46322042
:103C9400BDE88040FFF7D4BFD0B502AF14484FF45D
:103CA40000310160032000F053F841F2941002F057
:103CB400C3FCFFF7CBFF962002F0BEFCFFF7C6FF64
:103CC400FFF7E3FF022000F043F8FFF7DEFF094CA3
:103CD4002820A0470820A0470120A0474FF4FA60FD
:103CE400FFF7AEFF06202146BDE8D040084700BFDD
:103CF40018080240393D0008D0B502AF0446C0B2EE
:103D0400000900F025F804F00F00BDE8D04000F0F1
:103D14001FB8D4D480B56F46054902220A60FFF764
:103D2400EBFFFFF7B2FF0520BDE8804002F084BC42
:103D34001808024080B56F4604494FF400320A6007
:103D4400FFF7DAFFBDE88040FFF79FBF1808024085
:103D540080B56F46C1074FF010020F4908BF4FF4FA
:103D640080120A6082074FF0200258BF4FF40012FD
:103D74000A604207C0B24FF0400258BF4FF48002BD
:103D84000A604FF40002072888BF80220A60BDE859
:103D94008040FFF75BBF00BF18000240D0B502AF00
:103DA4000068074A007852F82040064A52F820205A
:103DB400D1E90001CB682146BDE8D040184700BFD7
:103DC400ACD4000820D2000880B56F460068BDE876
:103DD400804000F001B8D4D4F0B503AF2DE9000F52
:103DE4008DB0D0E90086D1E9004022210569079011
:103DF4002046A847002840F0F180002E00F0BD8046
:103E0400002002950890002530460594CDF81080D6
:103E1400039608EB0006002118F80120A2F17F03A5
:103E240013F15F0F07D3222A18BF5C2A03D0013194
:103E34008842F1D1A4E008EB01000D44804618F952
:103E4400011BCCB2B1F1FF3F25DC427804F01F0125
:103E5400E02C02F03F0215D38378F02C03F03F03EB
:103E640043EA821213D3C37801F0070100F1040876
:103E740003F03F0343EA821242EA8144B4F5881F07
:103E840009D175E042EA811400F1020803E042EA34
:103E9400013400F10308069609A821464FF00112E7
:103EA40002F03CFF9DF830A09DF831B0ABEB0A095D
:103EB4005FFA89F0012801D1069E4AE008988542FC
:103EC400C0F09480089868B103980899814207D299
:103ED40004980899405610F1410F40F3878001E09F
:103EE40040F084804DB10398854205D20498405730
:103EF40010F1410F7ADD00E078D10498089A811816
:103F04000798AA1AC6680598B047002866D1BBF17D
:103F1400810F04D309990598029A904705E009A8EE
:103F24004A4600EB0A010598B047002856D1802C78
:103F340002D20120069E0AE0069EB4F5006F01D26B
:103F4400022004E00420B4F5803F38BF0320284455
:103F54000890802C01D2012009E0B4F5006F01D251
:103F6400022004E00420B4F5803F38BF0320054458
:103F7400B6EB08007FF44DAF03E00022002025E0FB
:103F840005440898A84239D8DDE90328059C089817
:103F940050B10898904209D2089918F9010010F11B
:103FA400410F084604DC2DE0002001E0104629D131
:103FB40045B1954208D218F9051011F1410F20DDE1
:103FC4002A4602E0002200E01BD1029D08EB00011A
:103FD400121A0798C3682046984718B101200DB0FB
:103FE40007F00DBC20462221A847F8E708480090B6
:103FF400DDE90310089A2B4603F087F8DDE903286E
:1040040000E008900348114600904046F2E700BFE4
:1040140024D8000834D8000880B56F46FEDED4D416
:104024000068026862B1E0B502AF094A019007482E
:10403400009001AB08461146042206F041FE8CBDF7
:10404400D1E900010422CB6802491847CD3D00089C
:1040540098CD0008A4CD000820293EBFC84000F038
:104064000100704780B56F4602482821024A03F0D8
:104074001BFB00BFC0D0000838CF000880B56F46D6
:10408400084603490222BDE8804003F021BB00BF7B
:1040940028EE0008F0B503AF2DE9000F89B00E46F5
:1040A40089688A0143D4D0E90054480156D485EA8A
:1040B400E47084EAE471B0EBE47861EBE479B8F598
:1040C4007A7079F1000066D3DFF844A14FF0000B59
:1040D40003964046494642F21072002308F066FBFC
:1040E40042F210724FF0640E00FB128293B2B3FBE3
:1040F400FEF303FB1E223AF813C004AE5E44ABF198
:10410400040B92B2A6F810C03AF812207282414A07
:10411400B2EB080280464FF0000272EB09028946B6
:10412400D7D3039E0BF114028046894634E0D0E9CC
:10413400002104A8334B0F252C4602F00F05120969
:104144005D5D42EA0172055552EA1115A4F10105BB
:104154004FEA1111F0D1611C204413E02B4904A84B
:104164000F231A4605F00F03CB5C83542B0943EA53
:10417400047555EA14134FEA1414A2F10103F0D1A3
:10418400511C1044C1F111011F4A0223CDE9000161
:104194003046012130E014220020D8F1090170EBEF
:1041A400090010D21FFA88F06421B0FBF1F0184B1B
:1041B40000FB1181023A4FF0000989B233F8111063
:1041C40004AB995200E0404655EA040102D050EA9B
:1041D400090106D00E49013A01EB4000407804A9D8
:1041E4008854C2F1140004A911440122CDE900103D
:1041F400E043C10F3046002303F064F909B0BDE881
:10420400000FF0BD50D200080ED90008F0D100080C
:1042140044D800087F969800E0B502AF0846002114
:10422400019101A900F094F80A46014602F086FAC9
:1042340000208CBDDCB504AF07F0C6FA01A9104616
:1042440000F086F807F0DAF902F029FC0020DCBD62
:10425400DCB504AF07F0B8FA01A9104600F078F80D
:1042640007F0CCF901F0CEFD0020DCBDDCB504AFD5
:1042740007F0AAFA01A9104600F06AF807F0BEF99F
:1042840002F002FC0020DCBD80B56F460A460249FC
:10429400BDE8804005F0E1BF00D3000880B56F465B
:1042A4000A460249BDE8804005F0D7BF60D3000844
:1042B40080B56F460A460249BDE8804005F0CDBF8F
:1042C40048D3000880B56F460A460249BDE88040DD
:1042D40005F0C3BF18D3000880B56F460A460249EB
:1042E400BDE8804005F0B9BF30D3000880B56F4603
:1042F4000A460249BDE8804005F0AFBFD0D20008AD
:1043040080B56F460A460249BDE8804005F0A5BF66
:10431400E8D2000880B56F460A460249BDE88040ED
:1043240005F09BBFB8D2000880B56F4680BD80B54C
:104334006F46D0E90001BDE8804000F000B880B5C8
:104344006F4620B10846BDE8804002F0C1BA80BD86
:10435400B0B502AF0C46802801D2012509E0B0F5C2
:10436400006F01D2022504E00425B0F5803F38BF78
:104374000325214600F004F820462946B0BDD4D4D4
:1043840080283CBF08707047F0B503AF4DF804BDFA
:10439400114C0346820964F39F13B0F5006F03D2F6
:1043A4004B7042F0C00014E064F39F12050B00262A
:1043B400B6EB104F04D18B7045F0E0004A7008E072
:1043C4006FF00F0646EA904064F39F15CB708A7035
:1043D4004D70087007F0FBB8FEFFFF038A4204D358
:1043E400B2F5805F9CBF0844704780B56F460846AD
:1043F40011464FF4805203F01CFBD4D4134681427F
:1044040006D3B1F5805F9FBF044908440430704768
:1044140080B56F464FF4805203F00BFBC8000020B8
:10442400F0B503AF4DF804BD82B00A68012A1FBF7E
:10443400043191E87C007CC002B01CBF5DF804BB71
:10444400F0BD0448A7F11102009006210248034B75
:1044540006F099FCF0CE0008E9CE0008E8D0000888
:10446400F0B503AF4DF804BD0446806800F04AFA85
:10447400144D4FF4616361682844134D01F03F0605
:10448400C1F30442C1F3052180FB0505A2FB03230C
:104494003044801845EB03023C23E1FB0302A1896D
:1044A4004BB241F30721A1EB0111C3EB8101A37BC3
:1044B400064C5BB203FB0411401842EBE1715DF85A
:1044C40004BBF0BD74C2DAFF80510100F0F1FFFFBC
:1044D400F0B503AF2DE9000F8DB0D7E904B49946C8
:1044E400CDE90020214607F031F93C22002305469E
:1044F40007F04EFF16465846214607F022F91822C7
:10450400002308F053F9C42006EB192605FB00B07C
:1045140048444FFA80F8B8F13B0F03DD0136A8F1A7
:104524003C0805E0B8F1000F44BF013E08F13C0827
:1045340070B202EB19493B2803DD09F101093C3E45
:1045440004E0002802D5A9F101093C36BC684FFA01
:1045540089F0172804DDA9F118094FF0010A08E0D1
:10456400002802D44FF0020A03E04FF017094FF07D
:10457400000A194A07F0DBF80546204600F0C2F9A4
:10458400411902A800F0E0F9029818B1019901203C
:10459400C8711DE00398BAF1000F05D0BAF1010FFC
:1045A40006D100F0E1FA01E000F08CF90028EDD02A
:1045B4005FFA89F2F1B21204019B42EA01215FFA27
:1045C40088F21144009A986022F04042C3E9002125
:1045D4000DB0BDE8000FF0BD80510100F0B503AF90
:1045E4002DE9000B0446F8682B49884203DB42F2AC
:1045F4000F71884217DD28494FEAE07C4FF0FF38FD
:10460400002642F20F7E04228946264900231C25F7
:1046140084E80602C4E90865C4E9038EC4E90530E8
:10462400C4F81CC034E0D7F808E01D4616467146AD
:104634006FF35F213C2924D303B24FF0640C93FB46
:10464400FCF202FB1C320323002A08BF0F230340A1
:104654005FEA8E5203D4002B08BF013111E083B10D
:104664003C290DD14FF0000C4FF001094FF01C0E06
:104674001D200A4903220A4E00234FF00008C6E712
:10468400013900F047FA0021C4E90250C4E90016D8
:10469400BDE8000BF0BD00BFF1D8FFFF8CD10008CE
:1046A40070D10008ACCD0008F0B503AF2DE90007C8
:1046B4008AB0D7F808A0044691460222984651468B
:1046C4005FEA8A504FF03C006FF35F2158BF3B20F4
:1046D4000E1A98BF0E4641F65F704FF4867106FBC2
:1046E40001004FEA5035294688BF02EB5031684635
:1046F40000F05EFA47F2E60040F64D7105FB01005A
:10470400FA684FEAAA21A6EBD013684600F088F9AC
:10471400009828B169462046282207F081FB05E06D
:1047240001980021C4E90019C4E902800AB0BDE877
:104734000007F0BDB0B502AF88B0044678690390B5
:1047440038690290B868009005AD2846FFF7C0FEAE
:104754009DF81B0028B1054890E80E000EC408B06F
:10476400B0BD95E8070007C408B0B0BD58D1000833
:10477400F0B503AF2DE9000F8DB0D7E904B61D469F
:10478400CDE90020314606F0E1FF3C220023044637
:1047940007F0FEFDC2EB15285846314606F0D1FF5E
:1047A4001822002308F002F8C421C2EB154004FBD0
:1047B40001B1691A4DB23B2D03DD08F101083C3DFE
:1047C40004E0002D02D5A8F101083C35BE684FFA7B
:1047D40080F94FFA88F03B2809DDA8F13C08B9F1CB
:1047E400160F0CDD4FF000094FF0010A14E0B0F190
:1047F400FF3FDCBFA9F1010908F13C0801E009F120
:1048040001094FFA89F0B0F1FF3FDABF09F1180945
:104814004FF0000A4FF0020A1A4A06F088FF0446D5
:10482400304600F06FF8011B02A800F08DF80298E2
:1048340028B11548019C90E80E000EC41EE00398B0
:10484400BAF1000F05D0BAF1010F06D100F08CF9CE
:1048540001E000F037F80028EBD05FFA88F14FEA66
:10486400094242EA0121EAB21144019B009A21F073
:104874007F4122F04042C3E9002198600DB0BDE8B9
:10488400000FF0BD8051010064D1000880B56F466F
:104894008AB006F01EFF58BF3B21411A98BF01465B
:1048A40041F65F7001FB02004FF002024FEA503103
:1048B40088BF02EB5031684600F07AF99DF8040095
:1048C4000AB080BD80B56F4601466FF35F210129B0
:1048D4001CBF013880BD0A49884204BF002080BD46
:1048E4004FF0FF3106F053FE40F26D1108BF0F2266
:1048F400024208BF4FF4B771BDE8804000F00AB926
:1049040001C463FFD0B502AF0D496FF063034FF4E8
:10491400C87201EBA0216FF35F2091FBF3F391FBCD
:10492400F2F218440023841840F2B55081FB0001D0
:10493400042207F02DFD034920440844D0BD00BFE4
:104944003F420F00CD1B55EAF0B503AF4DF804BD4F
:10495400284A914202DB284B994211DD0023264C60
:104964004FF0FF3CCE174FF00A0E2C4D0362C0E906
:10497400005EC0E9022CC0E90443C0E9061637E032
:104984001E4A64241F4B02EB81011D4A1F4DB1FBDB
:10499400F2F202FB03111C4B41F00301A1FB0331B2
:1049A40002FB04121A4956181A498B4288BF561939
:1049B40032B292FBF4F505FB14220324002A08BF4B
:1049C4000F24B2023442144C08BF02F50072B3FB48
:1049D400F4F4254608BF01358B4205F13C034FF63C
:1049E400CF6588BF631900219BB21A43C0E9001246
:1049F40006F0EDBD0989E2FF2CFE51009395AB56FC
:104A0400B13A02004FC5FDFF61DB2C00C1BDF0FFD0
:104A1400C0BDF0FFC7E778D6846DB3008FD100081E
:104A2400F0B503AF4DF804BD04463548814203DBBD
:104A340042F20F75A94212DD002242F20F7C4FF0C0
:104A4400FF3ECD170426324B2262C4E90036C4E986
:104A5400020EC4E904C2C4E9061506F0B8BD581E26
:104A6400C0B21C281CD208B2642590FBF5F6D2B261
:104A740006FB150003250028244808BF0F250D4216
:104A840008BF183000EB4200DAB230F8020C0244DE
:104A94000846114600F03EF80021C4E90010DCE7A6
:104AA400D5B2A3F11D00022D0DD1642591FBF5F6BD
:104AB40006FB15150326002D08BF0F261C250E42E4
:104AC40008BF1D2503E082EAD50545F01E05C0B2E6
:104AD400EDB20328D8B201D2A842C4D91C23094E8E
:104AE4000021C4E9086301220323074EC4E90063DB
:104AF400C4E90221C4E90451C4E90601ADE700BFD9
:104B0400F1D8FFFF70D100088CD100089AD10008B9
:104B1400ACCD000880B56F46642290FBF2F303FB32
:104B240012020323002A08BF0F238202034288B221
:104B340008BF02F50072104380BD80B56F4606F0D1
:104B4400C8FD58BF3B2140F64D73411A98BF01463A
:104B540041F65F7001FB020047F2E602400B00FBE6
:104B64000320A1EBD01080BD014640F26D126FF31B
:104B74005F21914209D0B1F5B77F08D180B56F4666
:104B84000A49884205D1002080BD8105F6D501304F
:104B94007047012106F0FBFC08BF0F22810202428C
:104BA40008BF01F50071481C80BD00BF6D3D9C002D
:104BB400C9B24A1E0B2A38D8DFE802F00622161AB8
:104BC4000E262A1E32122E0A0021016001212AE03B
:104BD400002101600C2126E000210160052122E072
:104BE400002101600A211EE00021016003211AE076
:104BF40000210160042116E000210160082112E077
:104C04000021016002210EE00021016006210AE07A
:104C140000210160072106E0002101600B2102E070
:104C240000210160092101717047F0B503AF4DF80F
:104C340004BD00220C2301240525064E0262C0E9AE
:104C44000065C0E90242C0E90432C0E906125DF819
:104C540004BBF0BDD6D1000880B56F46D1E9000190
:104C64000522CB680149BDE880401847DBD1000824
:104C7400F0B503AF2DE9000B054606688068321ACB
:104C8400914202D8BDE8000BF0BD441820D2B4EB29
:104C9400460F98BF7400082C98BF0824002C17D422
:104CA40076B12046D5F8049001F078FDA8B14946C4
:104CB4003246804607F0B4F8484601F009FE04E0A5
:104CC400204600F0A5F8804638B1C5E90048D9E788
:104CD4000020034A214601F0F6FF0120F9E700BF56
:104CE400E0D10008D0B502AF0D4B024648F2CF40E8
:104CF40051B112F8014B013944EA002400F47F4019
:104D0400C009185A6040F3E7022139B100F47F4228
:104D14000139D2099A5A82EA0020F6E7D0BD00BFD1
:104D24003AEB0008DCB504AF0446044806F0D6F8B4
:104D3400019401A8042106F0F5F9DCBD0900000086
:104D4400DCB504AF0446044806F0C8F8019401A891
:104D5400042106F0E7F9DCBD05000000B0B502AFA0
:104D6400054606480C4606F0B9F8204606F0C8F891
:104D740028462146BDE8B04006F0D4B9070000003B
:104D8400BCB504AF054605480C4606F0A7F86846CE
:104D94000821CDE9005406F0C5F9BCBD06000000A9
:104DA400DCB504AF0446054806F098F8A7F10A00FC
:104DB400022127F80A4C06F0B5F9DCBD0800000012
:104DC400B0B502AF054606480C4606F087F82CB18C
:104DD40015F8010B06F08BF8013CF8E7B0BD00BFF5
:104DE4000A00000080B56F460B46D0E90112184650
:104DF400BDE8804002F06CBC80B56F46D1E900018B
:104E04001022CB680149BDE88040184760D20008F1
:104E140080B56F46BDE8804001F0C0BC0278052330
:104E2400032A88BF131FDAB2DFE802F0031B0F1551
:104E34000921D1E900010922CB6818491847D1E9B1
:104E440000010822CB6811491847D1E900010B225F
:104E5400CB6810491847D1E900010722CB680C49F7
:104E64001847D1E900010B22CB680B491847E0B57C
:104E740002AF054A01900348009001AB06F048FCDC
:104E84008CBD00BFA13D0008B4D200084CCD000881
:104E9400ADD20008A2D2000897D200088ED2000832
:104EA40002780223032A88BF131FDAB23AB1012A17
:104EB4000BD1D1E900010822CB680B491847D1E98D
:104EC40000010722CB6809491847E0B502AF054A3B
:104ED40001900348009001AB06F01AFC8CBD00BFA2
:104EE400A13D0008B4D200084CCD0008ADD20008A2
:104EF400F0B503AF4DF804BD0578022D0ED204467B
:104F040006F01AFC0020A0EB051600F067F8F0B2DA
:104F140006F08FFC25705DF804BBF0BD5DF804BBA2
:104F2400BDE8F04000F05AB8F0B503AF4DF804BD49
:104F340084B006F055FB0A4B06F0D3FA04D001A85E
:104F440000F010F9C0B208E006F000FB01A800F080
:104F540009F906F0F6FAE0B22E7006F0BEBA00BF08
:104F640072160020F0B503AF4DF804BD84B006F00E
:104F740037FB0A4B06F0B5FA04D001A800F05AF842
:104F8400C0B208E006F0E2FA01A800F053F806F017
:104F9400D8FAE0B22E7006F0A0BA00BF6416002062
:104FA400F0B503AF4DF804BD84B006F019FB0A4B0D
:104FB40006F097FA04D001A800F06AF9C0B208E03C
:104FC40006F0C4FA01A800F063F906F0BAFAE0B2F8
:104FD4002E7006F082BA00BF80160020B0B502AF72
:104FE400FDF7BCFC28B10E48D0E95001084318BFB6
:104FF400B0BD0B4800210124C0E9501180F848419C
:10500400084805F091FF084D20202860074805F066
:105014008BFF07482C600470BDE8B04006F003BC69
:1050240010150020120000001808024011000000B2
:1050340004150020F0B503AF2DE9800F06F0CDF97B
:1050440006F02DFB06F0C6FA08BF4FF0004906F043
:1050540043FC00283046314618BF6FF0004906F083
:105064005DFE002818BF4FF0000906F07CF9002807
:105074004FD006F0A6FBAAEB0005002D14DD38483E
:10508400854242D83548344E8046B54250DD2046EC
:1050940000210022FDF705FBC0B2092859D12046A2
:1050A400FDF7ECFB4544F0E72B4906F07AFA86421B
:1050B4002BDAA8EB050641F6940BE8462046CEB35E
:1050C400FDF7AAFA06F09FF9C0B207283ED106F010
:1050D4004FFA054606F049FA854203D106F045FA2F
:1050E40006F0D5FA06F044FA411E06F0B9FA06F0C5
:1050F4003FFA40F25D41884204D3204640F25C41CD
:10510400FDF799FA15480644D8E706F0A1FA06F027
:10511400A3FA204649465246FDF7C3FAC0B209280D
:1051240017D12046BDE8080FBDE8F040FDF765BB88
:1051340009200EE049465246FDF7B3FAC0B20928E9
:1051440007D12046FDF759FBC0B202E0042828BF6E
:105154000720BDE8080FF0BD8051010080AEFEFFBE
:10516400FF49BF05F0B503AF2DE9800F06F035F90F
:1051740006F095FA06F02EFA08BF4FF0004906F043
:10518400ABFB00283046314618BF6FF0004906F0EB
:10519400C5FD002818BF4FF0000906F0E4F8002808
:1051A40051D006F00EFBAAEB0005002D13DD3748A5
:1051B400854244D8B5F5616F54DD204600210022B4
:1051C400FDF798FAC0B209285DD12046FDF72FFB00
:1051D400A5F56165EEE768424FF4616190FBF1F675
:1051E40006F0C3F986422ADAC5F5616641F2100B6E
:1051F400E8462046C6B3FDF70FFA06F004F9C0B23C
:1052040007283DD106F0B4F9054606F0AEF985420B
:1052140003D106F0AAF906F03AFA06F0A9F9411EFC
:1052240006F01EFA06F0A4F9B0F5076F04D920467B
:105234004FF40761FDF7FFF9A6F56166D9E706F0BB
:1052440007FA06F009FA204649465246FDF752FA93
:10525400C0B2092817D12046BDE8080FBDE8F040C8
:10526400FDF797BA09200EE049465246FDF742FA87
:10527400C0B2092807D12046FDF78BFAC0B202E07C
:10528400042828BF0720BDE8080FF0BDFFA676005C
:10529400F0B503AF2DE9800F06F09FF806F0FFF993
:1052A40006F098F908BF4FF0004906F015FB0028F6
:1052B4003046314618BF6FF0004906F02FFD002834
:1052C40018BF4FF0000906F04EF800284CD006F045
:1052D40078FAAAEB0005002D14DD374885423FD843
:1052E4003448334E8046B5424DDD2046002100222D
:1052F400FDF728FAC0B2092856D12046FDF7ABFACB
:105304004544F0E72A4906F04CF9864228DAA8EB2E
:10531400050641F6045BE8462046B6B3FDF77CF982
:1053240006F071F8C0B207283BD106F021F9054612
:1053340006F01BF9854203D106F017F906F0A7F928
:1053440006F016F9411E06F08BF906F011F97928DA
:1053540003D320467821FDF76EF916480644DBE7AF
:1053640006F076F906F078F9204649465246FDF7EC
:10537400E9F9C0B2092817D12046BDE8080FBDE8F5
:10538400F040FDF720BA09200EE049465246FDF7E9
:10539400D9F9C0B2092807D12046FDF714FAC0B2E2
:1053A40002E0042828BF0720BDE8080FF0BD00BFB5
:1053B40080DE28008021D7FFFF4B2813BFB506AF3E
:1053C40006F00EF9084B05F0DAFF03D001A800F04F
:1053D40055F8BFBD06F00AF801A800F04FF806F032
:1053E40090F82570BFBD00BFB8140020BFB506AF4C
:1053F40006F0F6F8084B05F0C2FF03D001A800F050
:1054040055F8BFBD05F0F2FF01A800F04FF806F013
:1054140078F82570BFBD00BFB8140020BFB506AF33
:1054240006F0DEF8084B05F0AAFF03D001A800F04F
:105434000DF8BFBD05F0DAFF01A800F007F806F08B
:1054440060F82570BFBD00BFB8140020BFB506AF1B
:1054540006F0C6F8084B05F092FF03D001A800F04F
:10546400B1F8BFBD05F0C2FF01A800F0ABF806F02B
:1054740048F82570BFBD00BF64160020BFB506AF55
:1054840006F0AEF8084B05F07AFF03D001A800F04F
:1054940025F8BFBD05F0AAFF01A800F01FF806F02B
:1054A40030F82570BFBD00BF80160020BFB506AF21
:1054B40006F096F8084B05F062FF03D001A800F04F
:1054C40047F8BFBD05F092FF01A800F041F806F0CF
:1054D40018F82570BFBD00BF72160020F0B503AFE9
:1054E4002DE9E00F05F070FF20B305F05CFF06F036
:1054F400DEF8834615488146BBF1000F1AD0002020
:105504000423029041F6045000EB86010E4802AADF
:10551400FDF762FDC0B207280CD106F0C4F806F00E
:10552400BAF806F061F809D006F043F908BF77200D
:105534000646E1E701990020086002E005F0B9FFA2
:10554400686006F033B900BF601600208021D7FFE1
:10555400F0B503AF2DE9E00F05F036FF28B305F0F1
:1055640022FF06F0A4F8834615488146BBF1000FDC
:105574001BD000200423029041F2100000EB8601AE
:105584000E4802AAFDF728FDC0B207280DD106F087
:105594008AF806F080F806F027F80AD006F009F930
:1055A40008BF40F66F000646E0E701990020086056
:1055B40002E005F07EFF686006F0F8B8601600208F
:1055C400F0F1FFFFF0B503AF2DE9E00F05F0FCFEAD
:1055D40028B305F0E8FE06F06AF8834615488146CC
:1055E400BBF1000F1BD000200423029041F694006D
:1055F40000EB86010E4802AAFDF7EEFCC0B20728B4
:105604000DD106F050F806F046F805F0EDFF0AD08B
:1056140006F0CFF808BF40F25B400646E0E7019988
:105624000020086002E005F044FF686006F0BEB8A0
:105634006016002080AEFEFFF0B503AF4DF8048D78
:1056440098B0D0E9001884680878062800F08C83A4
:10565400DFF8745795F8E012DFE801F00355263DB2
:105664000C680238032880F07F83AE49C000C0B2C2
:10567400C140E5E095F82212002900F06F8002286D
:1056840000F0BF80032840F06D8095F82002DFE829
:1056940010F0F90107002D013901230187019F0151
:1056A40005F0DAFE012631E195F8B41000295FD047
:1056B400022800F0CB80032800F0B280042840F0D8
:1056C4005383FBF70FFB002840F04E83D5E92A02F1
:1056D400D5F8B010F5E095F86A11002953D00228E6
:1056E40000F0C380032852D195F86801DFE810F078
:1056F400AE02070043017E0115011B02520205F0B0
:10570400A5FE012676E195F85010042845D100291C
:105714001DBF012085F852000020002004BFC5E908
:105724000C0040F20110A5F850001DE395F8DA12C0
:1057340000293DD0022800F0A78003283CD195F829
:10574400D802DFE810F0EC020700B20102024001C7
:105754009602AD0205F074FE0126FAE102284AD051
:1057640003284CD0042840F0FF8205F5B87028E0E7
:1057740002282FD0032800F06280042840F0F4822D
:10578400FBF7B0FAF0E2022824D0032835D004282D
:1057940040F0EA8205F1B80013E0A9B10A21032818
:1057A40008BF0521022817D187E088F84900DBE209
:1057B400022822D003280DD0042840F0D58205F514
:1057C4000A70FBF7C9FACFE20A21032808BF0221B5
:1057D400022801D1002133E0881E082800F26380EA
:1057E400DFE810F02E006100610061006100090033
:1057F4000B000D00C202032122E0042120E0052158
:105804001EE095F82002DFE810F03D01070091004A
:10581400A1006C001001270105F01EFE012699E08D
:1058240095F8B500DFE810F0A00207008E00AB0089
:10583400660045016C0105F007FF0126A3E0012184
:10584400012085F8E01205F0AAFF8DE295F8B50075
:10585400DFE810F08A020700A200D700700086017A
:10586400AE0105F0F1FE0126CFE095F86801DFE80E
:1058740010F0ED010700D80037017D00B601D70113
:1058840005F0E4FD01262FE195F8D802DFE810F0D9
:10589400470207007E01B801DF001C02320205F056
:1058A400CFFD0126B0E1CD1E032D00F25D82DFE8BD
:1058B40015F0080004000F00510298F8490001385F
:1058C40073E7CDE90F0202208DF83800119147E209
:1058D40098F84900013068E705F049FF1249029140
:1058E40016E005F044FF1049029135E005F0B4FDDF
:1058F4003C260BE005F0A8FED5E9013003910A49E6
:10590400029144E005F0A8FD4FF46166CDE902611F
:1059140000900EAE05F068FF22E005F02FFF02496B
:10592400029169E0020301008051010005F094FD39
:105934003C260FE005F088FED5E901300391E149EA
:10594400029166E005F080FE3C261CE005F084FD33
:105954004FF46166CDE9026100900EAE05F041FF9F
:1059640096E80E0005F505700EC08BE005F006FF05
:10597400D4490291BAE005F069FD3C263AE005F00D
:1059840063FE4FF46166D5E90130CDE90261009010
:105994000EAE05F029FF40E005F056FE3C2634E04B
:1059A400D5F81C6205F00AFE0138DFF82C14C0B2E9
:1059B400D5E9852305F03DFE04AE05F002FE04980A
:1059C400002858D066E105F0E0FEBE490291C2E02D
:1059D400D5F81C020121D5E9852305F060FD04AE4C
:1059E40005F0F2FD0498002845D065E105F02EFD90
:1059F4004FF46166CDE9026100900EAE05F0F4FE4D
:105A040078E005F021FE4FF46166D5E90130CDE977
:105A1400026100900EAE05F0E4FE96E8070007C5AB
:105A2400A2E105F013FD3C265EE0D5F81C6205F00A
:105A3400C5FD0138DFF8B013C0B2D5E9852305F000
:105A4400F8FD04AE05F0BDFD0498A0B14CE105F0ED
:105A54009CFEE3490291D9E0D5F81C024FF0FF31D6
:105A6400D5E9852305F01BFD04AE05F0ADFD0498D2
:105A7400002840F0968105F0BEFC05F5057091E81C
:105A84004C004CC0D5F8181205F0BEFDD5F8140230
:105A9400D5F81C22CDE90E0110920EA8FEF7E0FC09
:105AA40040F221214FF404724BE105F0C9FC3C267D
:105AB4004FE0D5F8B06005F081FD0138C649C0B2A9
:105AC400D5E92A2305F0B5FD04AE05F07AFD049866
